:020000040800F2
:10000000700E00206D05000841030008430300083E
:10001000470300084B0300084F03000800000000DE
:100020000000000000000000000000005303000872
:10003000550300080000000057030008590300089A
:100040008705000887050008870500088705000860
:100050008705000887050008870500088705000850
:100060008705000887050008870500088705000840
:100070008705000887050008870500088705000830
:10008000870500088705000887050008753A0008FD
:10009000C14200088705000887050008BD4D00081B
:1000A0008705000887050008870500088705000800
:1000B000592E00084332000857320008870500080F
:1000C00087050008870500088705000887050008E0
:1000D00087050008CD2D0008870500088705000862
:1000E00087050008870500088705000887050008C0
:1000F00087050008870500088705000887050008B0
:10010000870500088705000887050008870500089F
:1001100095500008894A00088705000887050008EF
:10012000870500088705000887050008870500087F
:10013000870500088705000887050008B146000804
:10014000094600088705000887050008870500089C
:10015000870500088705000887050008870500084F
:10016000870500088705000887050008870500083F
:10017000870500088705000887050008870500082F
:10018000870500088705000800F002F800F069F80C
:100190000AA090E8000C82448344AAF10107DA45E2
:1001A00001D100F05EF8AFF2090EBAE80F0013F0CB
:1001B000010F18BFFB1A43F00103184708AA0000FB
:1001C00028AA00000A444FF0000C10F8013B13F07D
:1001D000070408BF10F8014B1D1108BF10F8015BA0
:1001E000641E05D010F8016B641E01F8016BF9D193
:1001F00013F0080F1EBF10F8014BAD1C0C1B09D1EA
:100200006D1E58BF01F801CBFAD505E014F8016B5B
:1002100001F8016B6D1EF9D59142D6D370470000ED
:100220000023002400250026103A28BF78C1FBD8FF
:10023000520728BF30C148BF0B60704766290AF0DB
:10024000E483002070471FB50AF0D5FB08F054FB8B
:1002500004000020002109F0EFFDE0601FBD10B593
:1002600010BD08F069FC1146FFF7EDFF00F008F83B
:1002700008F087FC03B4FFF7F2FF03BC02F046FD71
:10028000A82002F0C1FC05F0A2FA48E0244800785A
:10029000012804DB00202249087005F0DBFA214820
:1002A0000078022804DB00201E49087005F0E8FAF7
:1002B0001D480078042804DB00201B49087005F065
:1002C000E3FA1A480078052804DB00201749087073
:1002D00005F0EAFA16480078142804DB00201449D7
:1002E000087005F0E7FA13480078322804DB002094
:1002F0001049087005F00DFB0F480078642804DBF6
:1003000000200D49087005F005FB0C480068B0F5A9
:10031000FA7F04DB00200949086005F007FBB5E718
:100320003400002035000020360000203700002077
:1003300038000020390000203A0000203C00002056
:10034000704700BFFEE700BFFEE700BFFEE700BF4B
:10035000FEE7704770477047704700000CB50020FB
:10036000019000907648006840F48030744908603D
:1003700000BF7348006800F4003000900198401CF2
:100380000190009818B90198B0F5A04FF1D16C48D0
:10039000006800F4003010B10120009001E000205E
:1003A00000900098012846D165484030006840F030
:1003B00080506349403108606248006840F4404022
:1003C000604908605E48083000685D49083108608F
:1003D0000846006840F4004008600846006840F4A1
:1003E000A05008605848091F0860081F006840F0C6
:1003F0008070091F086000BF5148006800F000705D
:100400000028F9D040F20570504908604C48083087
:10041000006820F003004A49083108600846006877
:1004200040F00200086000BF45480830006800F056
:100430000C000828F8D10CBD10B54548006840F400
:100440007000434908603E48006840F001003C49A4
:10045000086000203A4908310860394800683D4981
:100460000840374908603C48091D0860081F0068BB
:1004700020F48020091F0860002031490C310860F9
:10048000FFF76CFF4FF0006031498039086010BD04
:1004900070B500200022022300240221284D0835D7
:1004A0002D6805F00C0020B1042806D0082834D1AE
:1004B00007E02A4D2A4E356033E02A4D284E35603C
:1004C0002FE01F4D2D1D2D68C5F380541C4D2D1D93
:1004D0002D6805F03F0154B1224DB5FBF1F5184EE2
:1004E000361D3668C6F3881605FB06F209E01B4D7B
:1004F000B5FBF1F5124E361D3668C6F3881605FBBE
:1005000006F20F4D2D1D2D68C5F301456D1C6B00C6
:10051000B2FBF3F5124E356003E0104D104E35601E
:1005200000BF00BF064D08352D68C5F303150E4EFC
:10053000705D0B4D2D68C540094E356070BD0000E3
:10054000003802400070004008544007003C024060
:1005500088ED00E0FFFFF6FE103000240024F400D8
:100560000000002000127A000400002009488047A3
:1005700009480047FEE7FEE7FEE7FEE7FEE7FEE785
:10058000FEE7FEE7FEE7FEE704480549054A064B9D
:100590007047000039040008890100087008002035
:1005A000700E0020700A0020700A002032490143BA
:1005B000324A1160704770B5002100230F22C478C1
:1005C0001CB32E4C246804F4E064C4F5E064C4F366
:1005D0000721C1F10404E3B20A4144789C40E1B22E
:1005E0008478144021430C07210E254C0578615571
:1005F000047804F01F050124AC4005786D11AD00AE
:1006000005F1E025C5F8004109E0047804F01F0574
:100610000124AC401B4D0678761145F8264070BD8C
:10062000194A0A400243154B1B1F1A60704739B123
:10063000124A121D12680243104B1B1D1A6006E07D
:100640000E4A121D126882430C4B1B1D1A60704724
:10065000042808D14FF0E021096941F004014FF06E
:10066000E022116107E04FF0E021096921F0040167
:100670004FF0E022116170470000FA050CED00E038
:1006800000E400E080E100E080FFFF1F10B50446B9
:100690009848844208D10121084600F086FB0021D9
:1006A000012000F082FB76E09348844208D10121CA
:1006B000022000F07AFB0021022000F076FB6AE0C5
:1006C0008E48844208D10121042000F06EFB0021F5
:1006D000042000F06AFB5EE08948844208D10121D1
:1006E000082000F062FB0021082000F05EFB52E0D1
:1006F0008448844208D10121102000F056FB0021DB
:10070000102000F052FB46E07F48844208D10121CE
:10071000202000F04AFB0021202000F046FB3AE0B8
:100720007A48844208D10121402000F03EFB00219C
:10073000402000F03AFB2EE07548844208D10121A8
:10074000802000F032FB0021802000F02EFB22E010
:100750007048844208D10121801500F026FB002159
:10076000A01500F022FB16E06B48844208D101215D
:10077000401500F01AFB0021601500F016FB0AE09E
:100780006648844207D10121001500F00EFB0021CC
:10079000201500F00AFB10BDF0B50A460021002329
:1007A000002400BF3DE0012505FA01F3156805EAC4
:1007B00003049C4234D105684F000326BE40B54374
:1007C000056015794E00B54006683543056015791A
:1007D000012D02D01579022D16D185684F00032610
:1007E000BE40B543856055794E00B54086683543B7
:1007F0008560456801268E40B54345604568967919
:100800008E40B6B235434560C5684F000326BE40F2
:10081000B543C560D5794E00B540C6683543C5605F
:10082000491C1029BFD3F0BD4FF6FF7101600021B4
:10083000017141718171C171704708B54FF4803207
:100840000092009A0A430092009AC261C161009A24
:10085000C261C2690092C269009208BD02460020CE
:1008600013690B400BB1012000E0002070470146E6
:10087000086980B270470246002053690B400BB1F3
:10088000012000E0002070470146486980B27047AF
:1008900001837047418370470AB1018300E04183BF
:1008A00070474161704742694A4042617047F0B504
:1008B000002300244D07ED0E02FA05F3CE1000F1DF
:1008C000200555F826504E07F70E0F26BE40B543BB
:1008D000CF1000F1200646F82750CE1000F1200579
:1008E00055F8265045EA0304CE1000F1200545F8DE
:1008F0002640F0BD00000240000402400008024013
:10090000000C024000100240001402400018024097
:10091000001C024000200240002402400028024047
:10092000F948006840F00100F74908600020F649E6
:1009300008310860F4480068F4490840F24908604A
:10094000F348091D0860F348EF4984310860F04816
:100950001038091D0860EC48006820F48020EA493E
:1009600008600020E8490C310860E7498C310860D4
:1009700070470021E44A921C1170114608707047BC
:1009800010B501460022002300204A11012A02D19D
:10099000DD4C236808E0022A03D1DB4C7034236865
:1009A00002E0D94C7434236801F01F020124944002
:1009B0001C400CB1012000E0002010BD38B5002023
:1009C00000900024002500BF3120FFF7D9FF054625
:1009D0000098401C00900098B0F5A04F01D0002D69
:1009E000F2D03120FFF7CCFF08B1012400E0002451
:1009F000204638BD01460020C34A106820F0F800A8
:100A000040EAC10010607047C34908607047002188
:100A1000BD4A703211701170012802D004280AD129
:100A200004E00121B84A7032117005E00521B64A90
:100A30007032117000E000BF00BF7047B749086016
:100A4000704770B5049C41EA82150126C6EB530637
:100A500045EA0645054345EA0465AB4E361D35605B
:100A600070BDAD4908667047820142EA0172A64B2B
:100A700084331A607047A8498866704710B58301AF
:100A800043EA016343EA02739F4C8834236010BD3C
:100A9000A14908677047A049C86470470246002012
:100AA000994B0833186820F0EC6042EA01031843C0
:100AB000954B08331860704702460020924B08336C
:100AC000186820F0784042EA010318438E4B08333F
:100AD00018607047014600208B4A0832106820F0E9
:100AE000030008431060704787480830006800F032
:100AF0000C00704701460020834A0832106820F03D
:100B0000F000084310607047014600207E4A08321A
:100B1000106820F4E0500843106070470146002040
:100B2000794A0832106820F4604040EAC100106041
:100B30007047F0B500210022002402250026022380
:100B4000714F08373F6807F00C0121B1042905D027
:100B5000082937D105E0724F076036E0714F076012
:100B600033E0694F3F1D3F68C7F38056664F3F1D16
:100B70003F6807F03F036EB16A4FB7FBF3F7DFF84A
:100B800088C10CF1040CDCF800C0CCF3881C07FB16
:100B90000CF40CE0624FB7FBF3F7DFF86CC10CF11B
:100BA000040CDCF800C0CCF3881C07FB0CF4564F97
:100BB0003F1D3F68C7F301477F1C7D00B4FBF5F77D
:100BC000076002E0564F076000BF00BF4E4F083776
:100BD0003F6807F0F0010909534F7A5C0768D74076
:100BE0004760494F08373F6807F4E051890A4E4F84
:100BF0007A5C4768D7408760434F08373F6807F4FF
:100C00006041490B484F7A5C4768D740C760F0BDE8
:100C1000002100F44072B2F5407F0AD13A4A08320E
:100C2000116821F4F811414A02401143364A083252
:100C30001160354A70321268C0F30B031A43324B0D
:100C400070331A607047354944390860704733493A
:100C500040390860704736490860704701460020F7
:100C6000294A8C32106820F01F004A1E1043264A81
:100C70008C321060704701460020234A8C32106885
:100C800020F4F8504A1E40EA02201F4A8C321060BD
:100C90007047014600201C4A8C32106820F4401036
:100CA00008431060704701460020174A8C321068D4
:100CB00020F4400008431060704701460020124AAB
:100CC0008C32106820F44030084310607047194996
:100CD0000860704739B10C4A3032126802430A4B3F
:100CE00030331A6006E0084A303212688243064BFD
:100CF00030331A607047F9B1034A34321268024344
:100D0000014B34331A601CE000380240FFFFF6EA62
:100D1000103000240030002000004742800E47427F
:100D20000024F40000127A0014000020FFFCFF0FE2
:100D30005C014742E01147428F4A126882438E4B62
:100D40001A60704739B18C4A121D126802438A4BEF
:100D50001B1D1A6006E0884A121D12688243864BEA
:100D60001B1D1A60704739B1834A0C321268024366
:100D7000814B0C331A6006E07F4A0C3212688243C2
:100D80007D4B0C331A60704739B17B4A10321268C0
:100D90000243794B10331A6006E0774A103212682A
:100DA0008243754B10331A60704739B1724A243A46
:100DB00012680243704B243B1A6006E06E4A243AE4
:100DC000126882436C4B243B1A60704739B16A4AFF
:100DD000203A12680243684B203B1A6006E0664ADC
:100DE000203A12688243644B203B1A60704739B145
:100DF000614A1C3A126802435F4B1C3B1A6006E0D2
:100E00005D4A1C3A126882435B4B1C3B1A60704778
:100E100039B1594A143A12680243574B143B1A60CD
:100E200006E0554A143A12688243534B143B1A6049
:100E3000704739B1504A103A126802434E4B103B8A
:100E40001A6006E04C4A103A126882434A4B103B43
:100E50001A60704739B1484A1C3212680243464B47
:100E60001C331A6006E0444A1C3212688243424B2B
:100E70001C331A60704739B13F4A2032126802436E
:100E80003D4B20331A6006E03B4A20321268824311
:100E9000394B20331A60704739B1374A243212680F
:100EA0000243354B24331A6006E0334A2432126879
:100EB0008243314B24331A60704739B12E4A2C32A9
:100EC000126802432C4B2C331A6006E02A4A2C325B
:100ED00012688243284B2C331A60704739B1264A76
:100EE000303212680243244B30331A6006E0224A43
:100EF000303212688243204B30331A607047012829
:100F000008D11D493C31096841F008011A4A3C32B8
:100F1000116007E018493C31096821F00801164AC0
:100F20003C321160704739B1134A273A12780243B4
:100F3000114B273B1A7006E00F4A273A127882437A
:100F40000D4B273B1A7070470B484030006840F04B
:100F50008070094940310860704701460020064A08
:100F6000283A12680A400AB1012000E000207047C8
:100F700001492639087070473438024010B5012104
:100F80008803FFF756FF00214FF48040FFF751FF21
:100F900010BD1C49086070471B490862704730B596
:100FA00000228B071C0F0F2303FA04F2154B0833A2
:100FB0008C1053F824309343124C08348D1044F8AD
:100FC000253023468C1053F824308C07240F00FA68
:100FD00004F423430B4C08348D1044F8253030BD05
:100FE0000949DC31086070470849086070470020F3
:100FF00004492031096801F4807109B1012000E041
:1010000000207047003801400000274200042742BA
:1010100010B50446FE48844208D101210846FFF776
:1010200008FF00210120FFF704FF9DE0B4F1804F8D
:1010300008D101210846FFF7EBFE00210120FFF750
:10104000E7FE91E0F348844208D101210220FFF736
:10105000DFFE00210220FFF7DBFE85E0EE48844240
:1010600008D101210420FFF7D3FE00210420FFF75F
:10107000CFFE79E0E948844208D101210820FFF73A
:10108000C7FE00210820FFF7C3FE6DE0E44884425C
:1010900008D101211020FFF7BBFE00211020FFF72F
:1010A000B7FE61E0DF48844208D101212020FFF72C
:1010B000AFFE00212020FFF7ABFE55E0DA48844266
:1010C00008D101210220FFF7B4FE00210220FFF722
:1010D000B0FE49E0D548844209D101210804FFF758
:1010E000A8FE00214FF48030FFF7A3FE3CE0D0487B
:1010F000844209D101214804FFF79BFE00214FF4EF
:101100000030FFF796FE2FE0CA48844209D1012142
:101110008804FFF78EFE00214FF48020FFF789FE40
:1011200022E0C548844208D101214020FFF770FE2B
:1011300000214020FFF76CFE16E0C048844208D131
:1011400001218020FFF764FE00218020FFF760FE70
:101150000AE0BB48844207D101218015FFF758FE01
:101160000021A015FFF754FE10BD00220288A84BF5
:1011700098420ED0AC4B98420BD0B0F1804F08D0C3
:10118000A44B984205D0A44B984202D0A34B98425E
:1011900004D14FF68F731A404B881A43A04B9842E4
:1011A00007D0A04B984204D04FF6FF431A400B895A
:1011B0001A4302804B68C3620B880385944B9842A4
:1011C00002D0994B984201D18B7A03860123838206
:1011D00070474FF0FF314160002101800181418063
:1011E000817270470185828270470A46002101881A
:1011F0004FF68F7319401143018070474162704769
:10120000C16270470146486A70470146088D7047C1
:1012100021B1028842F00202028004E002884FF607
:10122000FD731A400280704721B1028842F0040227
:10123000028004E002884FF6FB731A400280704778
:1012400021B1028842F08002028004E002884FF659
:101250007F731A400280704702884FF6F7731A4076
:10126000028002880A430280704702884FF6FF43DB
:101270001A40028002880A430280704721B1028826
:1012800042F00102028004E002884FF6FE731A4029
:101290000280704770B5002400220023058C4FF6B1
:1012A000FE7635400584028C8388048B4FF68F755B
:1012B0002C40B51E2C400D882C43751E2A408D896C
:1012C0002A434D882A43524DA84202D0564DA84287
:1012D00013D14FF6F7752A40CD892A434FF6FB7597
:1012E0002A408D882A434FF6FF652B404FF6FF5565
:1012F0002B400D8A2B434D8A2B43838004838D68BA
:101300004563028470BD70B5002400220023058C63
:101310004FF6EF7635400584028C8388048B48F6BF
:10132000FF752C404FF6FF452C400D884FF6FF7699
:1013300006EA05252C434FF6DF752A408D8906EA1B
:1013400005152A434D8806EA05152A43304DA84263
:1013500002D0354DA8421DD14FF67F752A40CD8968
:101360004FF6FF7606EA05152A434FF6BF752A4069
:101370008D8806EA05152A434FF6FF352B404FF2BC
:10138000FF752B400D8A06EA85052B434D8A06EA38
:1013900085052B43838004838D688563028470BD3B
:1013A00070B5002400220023058C4FF6FF663540FF
:1013B0000584028C8388848B4FF68F752C404FF602
:1013C000FC752C400D882C434FF6FF552A408D8923
:1013D0004FF6FF7606EA05252A434D8806EA0525DD
:1013E0002A430B4DA84202D00F4DA84238D14FF2EC
:1013F000FF752A40CD894FF6FF7606EA05252A4378
:101400004FF6FF352A408D8806EA05252A4319E064
:10141000000001400004004000080040000C0040B3
:101420000010004000140040000401400040014052
:10143000004401400048014000180040001C0040EA
:10144000002000404EF6FF752B404DF6FF752B40F7
:101450000D8A06EA05152B434D8A06EA05152B432E
:10146000838084838D68C563028470BD70B500225B
:1014700000230024058C4EF6FF7635400584038C4E
:101480008488828B48F6FF752A404FF6FF452A4034
:101490000D884FF6FF7606EA05252A434DF6FF75BF
:1014A0002B408D8906EA05352B434D8806EA053524
:1014B0002B43FE4DA84202D0FD4DA84208D14BF669
:1014C000FF752C400D8A4FF6FF7606EA85152C43F2
:1014D000848082838D680564038470BD002101804F
:1014E0004180818081608181C18101824182704718
:1014F00070B50346002000241846183001258D40A1
:10150000ACB21D8CA5431D8409B108290AD100EB9A
:10151000610005684FF68F76354005600568154314
:1015200005600FE00D1FC5F34E052844056848F619
:10153000FF763540056005684FF6FF7606EA02261D
:101540003543056070BD4163704781637047C16377
:101550007047016470470A460021018B4FF68F7374
:1015600019401143018370470A460021018B48F658
:10157000FF7319404FF6FF7303EA022319430183F7
:1015800070470A460021818B4FF68F731940114333
:10159000818370470A460021818B48F6FF7319400A
:1015A0004FF6FF7303EA02231943818370470A460B
:1015B0000021018B4FF6F7731940114301837047E7
:1015C0000A460021018B4FF2FF7319404FF6FF735B
:1015D00003EA02231943018370470A460021818BE5
:1015E0004FF6F77319401143818370470A46002173
:1015F000818B4FF2FF7319404FF6FF7303EA02230A
:101600001943818370470A460021018B4FF6FB7313
:1016100019401143018370470A460021018B4FF6A0
:10162000FF3319404FF6FF7303EA02231943018386
:1016300070470A460021818B4FF6FB731940114316
:10164000818370470A460021818B4FF6FF33194092
:101650004FF6FF7303EA02231943818370470A465A
:101660000021018B4FF67F731940114301837047AE
:101670000A460021018BC1F30E014FF6FF7303EA06
:1016800002231943018370470A460021818B4FF6DC
:101690007F7319401143818370470A460021818B73
:1016A000C1F30E014FF6FF7303EA0223194381834E
:1016B00070470A460021018C4FF6FD731940114313
:1016C000018470470A460021018C4FF6F7731940D8
:1016D0001143018470470A460021018C4FF6DF73E5
:1016E00019404FF6FF7303EA021319430184704750
:1016F0000A460021018C4FF67F7319404FF6FF73A5
:1017000003EA02131943018470470A460021018C41
:101710004FF6FF5319404FF6FF7303EA02231943B4
:10172000018470470A460021018C4FF2FF73194073
:101730004FF6FF7303EA02231943018470470A46F8
:101740000021018C4DF6FF7319404FF6FF7303EA39
:10175000023319430184704730B5002301248C40C3
:10176000A3B2048C9C430484048C02FA01F5ADB24C
:101770002C43048430BD30B5002304248C40A3B234
:10178000048C9C430484048C02FA01F5ADB22C4312
:10179000048430BD828B4FF2FF331A408283828BE8
:1017A0004FF6FF7303EA01231A4382837047F0B5B3
:1017B0000C461546002100220026078C4EF6FF7CC1
:1017C00007EA0C070784818B028C4FF6FF7707EA44
:1017D000043640F6FF4739404FF6FF7707EA052702
:1017E00039434FF6FF7707EA0337394345F6FF776A
:1017F0003A4046F480573A4381830284F0BD828B9D
:101800004FF6F3731A408283828B0A4382837047B8
:10181000F0B50C461546002100220026078C4FF635
:10182000FF6C07EA0C070784818B028C4FF6FF7769
:1018300007EA04264FF60C7739404FF6FF7707EAA0
:1018400003172F4339434FF2FF573A4046F480774E
:101850003A4381830284F0BD028B4FF2FF331A407A
:101860000283028B4FF6FF7303EA01231A430283BC
:101870007047F0B50C461546002100220026078C63
:101880004FF6EF7C07EA0C070784018B028C4FF6BA
:10189000FF7707EA041640F6FF4739404FF6FF7717
:1018A00007EA033739434FF6FF7703E000000140B2
:1018B0000004014007EA052739434FF65F773A40B5
:1018C00046F010073A4301830284F0BD028B4FF6C5
:1018D000F3731A400283028B0A4302837047F0B508
:1018E0000C46154600210022068C4FF6FE773E403E
:1018F0000684018B028C4FF60C7631407E1C06EA82
:1019000003162E4331434FF6F576324044F001067C
:10191000324301830284F0BD70B505460C46208831
:1019200050B92389A28861882846FFF7D8FFE1884B
:101930002846FFF7CBFF25E0208804280AD1238919
:10194000A28861882846FFF794FFE1882846FFF7C0
:1019500083FF17E0208808280AD12389A28861889C
:101960002846FFF755FFE1882846FFF748FF09E0C2
:101970002389A28861882846FFF719FFE188284655
:10198000FFF708FF70BD00210180418001218180A7
:101990000021C180018170472DE9F04105460C46C8
:1019A00000260127608808B9022600E00026A088EA
:1019B000012801D1022700E001272088A0B923894E
:1019C000A28861882846FFF78AFFE1882846FFF74A
:1019D0007DFF23893A4631462846FFF74AFFE188D2
:1019E0002846FFF739FF13E02389A288618828463B
:1019F000FFF73FFFE1882846FFF72EFF23893A468D
:101A000031462846FFF76BFFE1882846FFF75EFF67
:101A1000BDE8F0810146486B70470146886B70470E
:101A20000146C86B70470146086C70470A884B88AE
:101A30001A438B881A43CB881A430B891A434B8964
:101A40001A438B891A43A0F8442070470021018073
:101A500041808180C180018141818181704731B1A4
:101A6000B0F8442042F40042A0F8442005E0B0F869
:101A70004420C2F30E02A0F84420704721B18288AE
:101A800042F00402828004E082884FF6FB731A4021
:101A90008280704721B1828842F00102828004E096
:101AA00082884FF6FE731A40828070471AB183898C
:101AB0000B43838102E083898B438381704781825A
:101AC000704702460020138A0B400BB1012000E052
:101AD00000207047CA430282704730B5024600209A
:101AE00000230024158A05EA0103958905EA01040B
:101AF00013B10CB1012000E0002030BDCA430282C6
:101B0000704741EA0203A0F8483070471AB1838950
:101B10000B43838102E083898B438381704721B12A
:101B2000828842F00802828004E082884FF6F773D0
:101B30001A408280704701894FF6F8721140018186
:101B400070470A46002101894FF68F7319401143EF
:101B50000181704730B504460D4629462046FFF7FF
:101B6000F0FF208940F00700208130BD2DE9F041D1
:101B700004460D4616461F46602D06D13B460122FF
:101B800031462046FFF775FE05E03B46012231460F
:101B90002046FFF7A4FE29462046FFF7D2FF208902
:101BA00040F007002081BDE8F08130B50C460021EF
:101BB0000189C9B24FF6FF7505EA03251543254390
:101BC0002943018130BD2DE9F04105460E461746F7
:101BD0009846002443463A4631462846FFF7E5FF3B
:101BE0002C894FF6F870044044F007044FF68F70CC
:101BF000044044F070042C81BDE8F081F0B5044647
:101C00000D4616461F463B46324629462046FFF7FC
:101C1000CCFF208940F480402081F0BD82884FF6BF
:101C20008F731A40828082880A43828070470289BB
:101C30004FF6F8731A40028102890A430281704705
:101C400002894FF67F731A40028102890A4302819A
:101C50007047F0B50C4615461E46002100220023B1
:101C60000189028B038C4FF6F877394021434FF6F8
:101C7000FC473A4040F201173A434FF6DD773B40CC
:101C80004FF6FF7707EA06172F433B430181028394
:101C90000384F0BD21B1828842F08002828004E09A
:101CA00082884FF67F731A4082807047A0F85010E8
:101CB0007047000010B50446FA48844208D101215B
:101CC0001020FFF7B6F800211020FFF7B2F857E018
:101CD000F548844209D101214804FFF799F8002111
:101CE0004FF40030FFF794F84AE0F048844209D1FD
:101CF00001218804FFF78CF800214FF48020FFF7C2
:101D000087F83DE0EA48844209D10121C804FFF781
:101D10007FF800214FF40020FFF77AF830E0E54823
:101D2000844209D101210805FFF772F800214FF420
:101D30008010FFF76DF823E0DF48844208D10121CD
:101D40002020FFF776F800212020FFF772F817E037
:101D5000DA48844209D101218807FFF759F80021A8
:101D60004FF08040FFF754F80AE0D548844207D18D
:101D700001214005FFF74CF800216005FFF748F806
:101D800010BD2DE9FF4705460E460024A14600BFC1
:101D9000A046B08900B100BF2C8A24F44054F088DA
:101DA00004432C82AC8941F20C608443B0883189B1
:101DB0000843718908430443AC81AC8A24F440741D
:101DC000B0890443AC826846FEF7B3FEB54885424D
:101DD00002D0B948854202D1DDF80C9001E0DDF86F
:101DE0000890A88900F4004040B109EBC90000EB5D
:101DF000091031684900B0FBF1F707E009EBC900B1
:101E000000EB091031688900B0FBF1F76420B7FBE3
:101E1000F0F004012009642101FB1078A88900F486
:101E2000004040B1322000EBC800B0FBF1F000F000
:101E30000700044308E0322000EB08106421B0FBE7
:101E4000F1F000F00F0004432C81BDE8FF874FF450
:101E50001651016000218180C18001810C214181E6
:101E600000218181704710B502460020108A20F4BD
:101E700070600B884C8823438C882343CC88234391
:101E80001843108210BD0021018041808180C180F3
:101E9000704721B1828942F40052828104E0828934
:101EA0004DF6FF731A4082817047028B02F47F4225
:101EB0000283028B0A430283704721B1828942F474
:101EC0000042828103E08289C2F30E028281704760
:101ED00021B1828A42F40062828204E0828A4FF257
:101EE000FF731A4082827047C1F3080282807047F4
:101EF00001468888C0F308007047028A4FF6F073E5
:101F00001A400282028A0A430282704721B1828902
:101F100042F00202828104E082894FF6FD731A408A
:101F20008281704782894FF2FF731A4082818289D1
:101F30000A4382817047028A4FF6DF731A40028299
:101F4000028A0A430282704721B1028A42F4804227
:101F5000028204E0028A4BF6FF731A400282704745
:101F6000818941F001018181704721B1828A42F06B
:101F70000802828204E0828A4FF6F7731A40828256
:101F80007047028BD2B20283028B42EA01220283A3
:101F9000704721B1828A42F02002828204E0828A64
:101FA0004FF6DF731A408282704721B1828A42F075
:101FB0001002828204E0828A4FF6EF731A40828216
:101FC0007047828A4FF6FB731A408282828A0A43E4
:101FD0008282704721B1828A42F00202828204E04A
:101FE000828A4FF6FD731A40828270471AB1838A43
:101FF0000B43838202E0838A8B4383827047F0B570
:102000000346002400260025002040F66A17B94246
:1020100000D100BF1846C1F3421401F01F0601278A
:1020200007FA06F5012C01D10C3004E0022C01D195
:10203000103000E014301AB107682F43076002E047
:102040000768AF430760F0BD02460020B1F5007F8E
:1020500000D100BF13880B400BB1012000E000202D
:10206000704701F40072B2F5007F00D100BFCA438F
:102070000280704770B5024600240023002500202E
:1020800040F66A16B14200D100BFC1F3421501F01B
:102090001F03012606FA03F3012D13D1968933405D
:1020A00017E00000001001400044004000480040DC
:1020B000004C0040005000400014014000780040F7
:1020C000007C0040022D02D1168A334001E0968A3E
:1020D00033400C12012606FA04F41688344013B17A
:1020E0000CB1012000E0002070BD10B500220023DB
:1020F00040F66A14A14200D100BF0A1201249440A4
:10210000A3B2DC43048010BD10B50446FE488442EF
:1021100009D101214806FEF77BFE00214FF0007037
:10212000FEF776FE08E001218806FEF771FE002129
:102130004FF08060FEF76CFE10BD30B50246002007
:102140000023146824F002041460146844F00104AD
:10215000146000E05B1C546804F001041CB94FF6E5
:10216000FF74A342F6D1546804F001040CB90020B6
:102170006CE08C79012C04D1146844F08004146064
:1021800003E0146824F080041460CC79012C04D19D
:10219000146844F04004146003E0146824F0400420
:1021A00014600C7A012C04D1146844F020041460EB
:1021B00003E0146824F0200414604C7A012C04D14C
:1021C000146844F01004146003E0146824F0100450
:1021D00014608C7A012C04D1146844F00804146053
:1021E00003E0146824F008041460CC7A012C04D1B4
:1021F000146844F00404146003E0146824F0040438
:1022000014608C78A407CD7844EA05640D7944EA1B
:1022100005444D7944EA05540D886D1E2C43D46164
:10222000146824F001041460002300E05B1C54686F
:1022300004F001041CB14FF6FF74A342F6D15468B8
:1022400004F001040CB1002000E0012030BD10B505
:102250000021837A012202FA03F1AC4A126842F0AB
:102260000102AA4B1A60A94A1C3212688A43A74B82
:102270001C331A60027BCAB9A44A0C3212688A4322
:10228000A24B0C331A604288C38842EA03439F4A38
:102290004032847A42F834300288838842EA034329
:1022A0009A4A4032847A02EBC4025360027B012ACC
:1022B00019D1964A0C3212680A43944B0C331A60B7
:1022C0004288038842EA0343904A4032847A42F8C3
:1022D0003430C288838842EA03438C4A4032847A8D
:1022E00002EBC4025360C27A3AB9884A121D1268DE
:1022F0008A43864B1B1D1A6006E0844A121D126831
:102300000A43824B1B1D1A60028932B97F4A14327C
:1023100012688A437D4B14331A600289012A06D160
:102320007A4A143212680A43784B14331A60427B9B
:10233000012A06D1754A1C3212680A43734B1C33BA
:102340001A60724A126822F00102704B1A6010BDC6
:1023500000218171C171017241728172C1728170FB
:10236000C170032101710221417101210180704777
:102370006649096841F00101644A11601146096823
:1023800043F60E729143614A11601146096841EAB1
:10239000002111601146096821F0010111607047A8
:1023A00021B1026842F48032026003E0026822F444
:1023B000803202607047E1B1026842F08002026040
:1023C0004FF4C272125842F480734FF4C272135029
:1023D0004FF4CA72125842F480734FF4CA72135009
:1023E0004FF4D272125842F480734FF4D2721350E9
:1023F0001BE0026822F0800202604FF4C2721258A1
:1024000022F480734FF4C27213504FF4CA72125800
:1024100022F480734FF4CA7213504FF4D2721258E0
:1024200022F480734FF4D2721350704710B50246F5
:102430000020936803F08063B3F1806F00D110E057
:10244000936803F00063B3F1006F01D1012008E04D
:10245000936803F08053B3F1805F01D1022000E064
:102460000420042879D002F5C07303EB00131B6825
:1024700003F0010402F5C07303EB00131C600B7A38
:102480007BB94B7A0C8843EA445302F5C07404EBE1
:1024900000142468234302F5C07404EB0014236085
:1024A00010E00B7A4C6843EAC4034C7A234302F5EC
:1024B000C07404EB00142468234302F5C07404EBD9
:1024C000001423608B7A03F00F038B7202F5C07344
:1024D00003EB00135B6823F00F0402F5C07303EBFA
:1024E00000135C6002F5C07303EB00135B688C7A29
:1024F000234302F5C07404EB001463608B7B1C065D
:102500004B7B44EA034403E0006400400066004063
:102510000B7B44EA0323CC7A234302F5C07404EB1B
:102520000014A3608B7C1C064B7C44EA03440B7CA8
:1025300044EA0323CC7B234302F5C07404EB00146C
:10254000E36002F5C07303EB00131B6843F0010462
:1025500002F5C07303EB00131C6010BD10B50246FA
:10256000002321B1012907D002290FD109E0906889
:10257000F94C00EA04030BE09068F84C00EA04030D
:1025800006E09068F64C00EA040301E0002300BF77
:1025900000BFF44C181BA34216D007DC83B16FF0C8
:1025A0008060184470B1022818D111E0B0F5007FA6
:1025B00010D0ED4C204448B1B0F5003F0ED10BE0F7
:1025C00002230DE000230BE0002309E0002307E0D5
:1025D000012305E0012303E0012301E0002300BF04
:1025E00000BFD8B210BD21B1012907D002290FD1F7
:1025F00009E0826842F0800282600AE0826842F468
:102600000042826005E0826842F40002826000E0DD
:1026100000BF00BF704710B500F5D87303EB01137E
:102620001B6803F004031372137A53B900F5D873CF
:1026300003EB01131B6840F2FF7404EA5353136069
:1026400009E000F5D87303EB01131B686FF06044D9
:1026500004EAD303536000F5D87303EB01131B683E
:1026600003F00203537200F5D87303EB01135B68A8
:1026700003F00F03937200F5D87303EB01135B684B
:102680001B0AD37400F5D87303EB01139B68D37254
:1026900000F5D87303EB01139B681C0A147300F553
:1026A000D87303EB01139B681C0C547300F5D873AB
:1026B00003EB01139B681B0E937300F5D87303EBB8
:1026C0000113DB68D37300F5D87303EB0113DB68E8
:1026D0001C0A147400F5D87303EB0113DB681C0C9F
:1026E000547400F5D87303EB0113DB681B0E93746D
:1026F00021B9C36843F02003C36003E0036943F0DA
:102700002003036110BD21B9C26842F02002C260FB
:1027100003E0026942F02002026170470246002095
:1027200019B9D36803F0030006E0012903D1136946
:1027300003F0030000E00020704710B502460B468E
:1027400000204FF6FF71BBB9146824F0020444F076
:102750000104146000E0491E546804F00304012CD5
:1027600001D00029F7D1546804F00304012C01D0F2
:10277000002032E0012030E0012B13D1146824F056
:102780000304146000E0491E546804F003040CB113
:102790000029F8D1546804F003040CB100201CE0B7
:1027A00001201AE0022B17D1146824F0010444F030
:1027B0000204146000E0491E546804F00304022C73
:1027C00001D00029F7D1546804F00304022C01D091
:1027D000002002E0012000E0002010BD01460020A2
:1027E0000A6822F0010242F002020A604A6802F01E
:1027F0000302022A00D10120704701464FF6FF7202
:1028000000200B6823F002030B6000E0521E4B68AF
:1028100003F00203022B01D1002AF7D14B6803F029
:102820000203022B00D001207047014600208A6974
:1028300002F070007047014600208A69100E704750
:10284000014600208A69C2F3074070471AB1436904
:102850000B43436102E043698B434361704710B50A
:102860000246002001F4700343B19369C1F31304DD
:1028700023400BB101202DE000202BE001F08073FC
:1028800043B15368C1F3130423400BB1012021E08D
:1028900000201FE001F0006343B19368C1F313040B
:1028A00023400BB1012015E0002013E001F000737C
:1028B00043B1D368C1F3130423400BB1012009E0F5
:1028C000002007E01369C1F3130423400BB101207A
:1028D00000E0002010BD0022244B994202D10023C9
:1028E000836111E0C1F3130201F000730BB1C26008
:1028F0000AE001F080630BB1026105E001F00063C2
:102900000BB1826000E0426070470246002002EA9C
:1029100001030BB1012000E00020704770B50446B0
:102920000D46002660692840002872D0B5F5807FEA
:1029300069D01DDC082D42D006DC012D2DD0022DE2
:1029400031D0042D7FD134E0102D3ED0202D42D047
:10295000402D78D145E0000003000004000300088A
:1029600000000310000100080001FFF77000F030C4
:10297000B5F5004F61D009DCB5F5007F4AD0B5F55B
:10298000806F4DD0B5F5006F5DD150E0B5F5803F5B
:102990002DD0B5F5003F56D12FE0A0685549FFF77F
:1029A000B4FF064651E0E0680321FFF7AEFF06469C
:1029B0004BE0E0680821FFF7A8FF064645E0E06825
:1029C0001021FFF7A2FF06463FE020690321FFF731
:1029D0009CFF064639E020690821FFF796FF06466E
:1029E00033E020691021FFF790FF06462DE0606874
:1029F0000821FFF78AFF064627E060681021FFF7ED
:102A000084FF064621E0A0690121FFF77EFF06460C
:102A10001BE01BE0A0690221FFF777FF064614E0E8
:102A2000A0690421FFF771FF06460EE00BE0A069E4
:102A30007021FFF76AFF064607E060680421FFF790
:102A400064FF064601E0002600BF00E00026304695
:102A500070BDB1F5007F3AD00FDC202928D006DC0C
:102A600001291CD004291DD0082940D11DE040298E
:102A700021D0B1F5807F3AD126E0B1F5004F31D0B9
:102A800006DCB1F5806F25D0B1F5006F2FD124E0C1
:102A9000B1F5803F12D0B1F5003F28D111E0154AC1
:102AA000826025E00822C26022E01022C2601FE09E
:102AB000082202611CE01022026119E00822426033
:102AC00016E01022426013E00422426010E004226B
:102AD00042600DE0042242600AE00022826104228A
:102AE000426005E0002282610422426000E000BFF3
:102AF00000BF704701010100002041490860091D25
:102B00000860091D0860091D08603E483C491431F1
:102B10000860704700213A498279002A3AD00A4673
:102B2000126803689A430B461A600A1D126803680C
:102B30009A430B1D1A60027911440A6803681A430C
:102B40000A602F4A0832126803689A432C4B0833F4
:102B50001A601A1D126803689A43294B0C331A60D5
:102B60004279102A0ED11A1F126803681A43244BA7
:102B700008331A601A1D126803681A43204B0C337D
:102B80001A600DE01E49427911440A6803681A432D
:102B90000A6005E0027911440A6803689A430A60F2
:102BA00070470021016001710C2141710021817188
:102BB00070471349103109680143114A10321160FE
:102BC0007047014600200E4A143212680A400AB1CA
:102BD000012000E000207047094914310860704767
:102BE00001460020064A143212680A400AB1012048
:102BF00000E000207047024914310860704700006F
:102C0000003C0140FFFF7F0010B504466FF0040058
:102C1000FDF71EFDE11704EB5171C1F3C701394AFD
:102C200011701046007800EB4001C1EBC0104FF668
:102C3000FF7101EAC0003449088010BD0146314AE5
:102C400012784A434FF0E0235A6100229A611A46F3
:102C5000126942F001021A6100BF4FF0E0221069D0
:102C600000F001021AB100F48032002AF5D04FF0D2
:102C7000E022126922F001024FF0E0231A610022E3
:102C80009A6170470146204A12884A434FF0E02378
:102C90005A6100229A611A46126942F001021A61D1
:102CA00000BF4FF0E022106900F001021AB100F4F9
:102CB0008032002AF5D04FF0E022126922F00102A2
:102CC0004FF0E0231A6100229A61704770B5044604
:102CD0004FF4077094FBF0F0C6B24FF4077094FB0A
:102CE000F0F100FB114085B205E04FF40770FFF7EB
:102CF000C9FF701EC6B2002EF7D115B12846FFF7E6
:102D0000C1FF70BD240000202600002000BF7047D6
:102D100000BF4D4A128802F04002002AF9D0C2B228
:102D2000494B9A80704710B588B004460121084687
:102D3000FDF7D0FF01211020FEF726F80722092118
:102D40004248FDF7B4FD07220A214048FDF7AFFDD8
:102D50004FF4C060069002208DF81C008DF81D0015
:102D600000208DF81E0001208DF81F0006A93748AD
:102D7000FDF712FD02940020ADF80C00ADF80E0036
:102D8000ADF81000ADF814000C20ADF8120002A947
:102D90002D48FEF7F6FF01212B48FFF77AF80122B4
:102DA00040F225512848FFF72AF925208DF8040024
:102DB00003208DF8050002208DF8060001208DF813
:102DC000070001A8FDF7F7FB08B010BD10B540F2F1
:102DD00025511D48FFF74EF910B31B48FFF788F83F
:102DE000C4B21B48008800F40040C8B918480088E5
:102DF00000F4804060B10A2C03D000201449088000
:102E000020E01348008840F400401149088019E090
:102E10000D2C06D10E48008840F480400C490880F3
:102E200010E00B480088C0F30D000A490C54084814
:102E30000088401C0649088008460088C72801DD34
:102E40000020088010BD000000100140000002407A
:102E50002C000020E00200204FF08040008A00F0AB
:102E60000100002835D04FF6FE704FF080410882F7
:102E70003048007800B970472F480068401C2E4940
:102E800008602E480078401C2C4908702C480078B7
:102E9000401C2B4908702B480078401C29490870B9
:102EA00029480078401C2849087028480078401CB0
:102EB0002649087026480078401C25490870254896
:102EC0000078401C2349087023480068401C2249B0
:102ED000086000BFCFE73EB5044601210846FDF774
:102EE00042FF1E4804804FF08040FEF791F800201A
:102EF000ADF80800ADF8020018480088184991FBA9
:102F0000F0F0401E01905320ADF8000069464FF0EC
:102F10008040FEF72AF901218807FEF7DBFD012238
:102F200011469007FEF7C2FD01218807FEF7A6F9BA
:102F30003EBD00006C010020300000203400002065
:102F40003500002036000020370000203800002027
:102F5000390000203A0000203C0000204000002002
:102F600040420F0000B589B001210220FDF7FBFEB1
:102F700001210846FDF7AEFE01210220FDF7AAFE61
:102F80004020019003208DF8090002208DF80800F0
:102F900001208DF80A008DF80B0001A9B848FDF753
:102FA000FBFB2020019003208DF8090002208DF802
:102FB000080001208DF80A008DF80B0001A9B14826
:102FC000FDF7EAFB02220621AD48FDF770FC022264
:102FD0000521AC48FDF76BFC06A8FEF7FAF80020C7
:102FE000ADF818004FF6FF7007900020ADF82000F4
:102FF000ADF81A0006A9A448FEF7B7F800231A4650
:103000000321A148FEF725FE03A8FEF7BCFC002023
:10301000ADF8140003A99C48FEF77EFC01219A48F4
:10302000FEF758FD012211469748FEF73FFD0121AA
:103030009548FEF723F909B000BD00B589B001211C
:103040000420FDF790FE01210820FDF743FE4FF418
:103050004050019003208DF8090002208DF80800EF
:1030600001208DF80A008DF80B0001A98748FDF7B3
:1030700093FB02220C218548FDF719FC02220D2149
:103080008248FDF714FC06A8FEF7A3F80020ADF86F
:1030900018004FF6FF7007900020ADF82000ADF843
:1030A0001A0006A97A48FEF760F800231A460321A1
:1030B0007748FEF7CEFD03A8FEF765FC0020ADF8CB
:1030C000140003A97248FEF727FC01217048FEF79F
:1030D00001FD012211466E48FEF7E8FC01216C4813
:1030E000FEF7CCF809B000BD00B589B0012102207F
:1030F000FDF74AFE01210420FDF7ECFD4020019080
:1031000003208DF8090002208DF8080001208DF8B9
:103110000A008DF80B0001A95E48FDF73DFB8020F9
:10312000019003208DF8090002208DF8080001208D
:103130008DF80A008DF80B0001A95648FDF72CFB0D
:10314000032206215348FDF7B2FB03220721514811
:10315000FDF7ADFB06A8FEF73CF80020ADF818001F
:103160004FF6FF7007900020ADF82000ADF81A0070
:1031700006A94948FDF7F9FF00231A4603214648EE
:10318000FEF767FD03A8FEF7FEFB0020ADF8140074
:1031900003A94148FEF7C0FB01213F48FEF79AFC16
:1031A000012211463C48FEF781FC00203A492431B7
:1031B000086001213848FEF761F809B000BD0146FA
:1031C000032904D004290BD008291BD111E02E4A71
:1031D0002432126810B200222B4B24331A6013E001
:1031E0002B4A2432126810B20022294B24331A6071
:1031F0000AE0294A2432126810B20022264B2433F6
:103200001A6001E0002000BF00BF7047014603299B
:1032100004D0042907D008290FD109E01A4A243222
:10322000126810B20BE01A4A2432126810B206E09B
:10323000194A2432126810B201E0002000BF00BF1A
:10324000704710B501211048FEF747FC01210E48D8
:10325000FEF754FC10BD10B501210D48FEF73DFCF2
:1032600001210B48FEF74AFC10BD10B501210A48A8
:10327000FEF733FC01210848FEF740FC10BD0000BA
:10328000000002400004024000040040000C024024
:1032900000080040000802400004014010B5002171
:1032A00006E0282200BF131EA2F10102FBD1491C37
:1032B0008142F6D310BD10B59FEDFE2ADFEDFE1A58
:1032C0009FEDFE1ADFEDFE0A9FEDFE0AFE4802F0BA
:1032D000DCFF10BD2DE9F04186B005460E461446D0
:1032E0001F464FF0040800208DF80C008DF80D00EB
:1032F00008208DF80E00072D06DC0F2E04DC48EAAE
:10330000052848EA061802E006B0BDE8F081CDF8CD
:10331000048041F28830844201DD044603E0EB483A
:10332000844200DA0446002C04DA01DD204600E085
:10333000604204B2200A8DF80F008DF81040390A5F
:103340008DF811108DF8127055218DF813108DF82D
:1033500014108DF815108DF816100020DC49087037
:1033600001A9DC48FFF762F80020DB4908600CE0A7
:103370000120FFF793FFD8480068401CD649086039
:1033800008460068642800D903E0D1480078002886
:10339000EED000BF00BFB7E710B544F25060CF4990
:1033A0000860084600684042CD4909680844CD4994
:1033B0000860CD48007800287AD1CC4800780128F0
:1033C00077D1CB480078082802D0092872D172E062
:1033D000C84890ED000AB8EEC00AF0EE400A00219D
:1033E000C04890ED000AB8EEC00AB74802F0A5FE4A
:1033F000B54890ED080AB1EE400ABF4880ED000ADA
:1034000090ED000ADFEDBD0AB4EEE00AF1EE10FA2D
:1034100003DD9FEDBA0A80ED000AB6480068B149A5
:103420000968401A002805DDB2480068AD490968FE
:10343000401A04E0AF480068AA490968081A42F235
:103440001071884204DA9FEDAE0AAB4880ED000AA5
:103450000820AC490870A7480068A2490968081A02
:10346000002805DDA34800689E490968081A04E0A1
:10347000A04800689B490968401AA3490988884206
:1034800007DA9FED8F0A9C4880ED000A00209749DB
:103490000870994890ED000ABDEEC00A10EE100ABF
:1034A00003B241F2883201210020FFF713FF73E0DD
:1034B00089E072E06FE08F4890ED000AB8EEC00A34
:1034C000F0EE400A0021874890ED000AB8EEC00AED
:1034D0007D4802F032FE7C4890ED080AB1EE400AC9
:1034E000854880ED000A90ED000ADFED840AB4EE15
:1034F000E00AF1EE10FA03DD9FED800A80ED000A8C
:103500007C48006877490968401A002805DD794839
:10351000006874490968401A04E0764800687149F7
:103520000968081A42F21071884204DA9FED740AA1
:10353000714880ED000A0920724908706D480068E2
:1035400068490968081A002805DD6A480068654965
:103550000968081A04E06748006862490968401A67
:1035600069490988884207DA9FED550A624880ED6B
:10357000000A00205D4908705F4890ED000ABDEE2A
:10358000C00A10EE100A03B241F288320121002075
:10359000FFF7A0FE00E000BF15E0554800780828BE
:1035A0000FD05348007809280BD0514800780228E2
:1035B00003D04F480078042805D1544800780228E9
:1035C00001D104F020FE10BD10B5514851490860EA
:1035D0000846006840424249096808444E4908606C
:1035E0004148007800285FD1414800780A280AD075
:1035F00004DC032859D0052858D10BE10B2856D0FC
:103600000D28F9D14BE145480078032850D13948BD
:1036100090ED000AB8EEC00AF0EE400A00213E48E4
:1036200090ED000AB8EEC00A274802F086FD264851
:1036300090ED080AB1EE400A394880ED000A90ED9D
:10364000000ADFED380AB4EEE00AF1EE10FA03DD0D
:103650009FED340A80ED000A264800682E4909686B
:10366000401A002805DD234800682B490968401AE4
:1036700004E02048006828490968081A49F27041A6
:10368000884204DA9FED1E0A254880ED000A26488C
:103690000078012807D19FED0A0A214880ED000A31
:1036A00000201E49087041E040E16EE03CE14EE040
:1036B0004AE0000000007A4400A08C45CDCC4C3D8F
:1036C000000000009A99993EA803002078ECFFFFC3
:1036D0006C000020006400406800002050000020C2
:1036E0006400002054000020D80200207101002056
:1036F0006E01002080040020440000200000FA44F5
:103700000080BB446F0100204C00002070010020AD
:10371000084C0100580000205C00002073010020CC
:103720004800002000803B45E3000020FA4890ED6F
:10373000000ABDEEC00A10EE100A03B241F2883250
:1037400001210020FFF7C6FD04F05DFDEDE0F34828
:103750000078032808D1F2480078012804D11FED31
:10376000280AED4880ED000AEB4890ED000ABDEE16
:10377000C00A10EE100A03B241F288320121002083
:10378000FFF7A8FD04F03FFDCFE0E64890ED000A0A
:10379000B8EEC00AF0EE400A0021E348006800F6E7
:1037A000B83000EE100AB8EEC00AE04802F0C5FCDE
:1037B000DE4890ED080AB1EE400AD74880ED000AD5
:1037C000D8480068D8490968081A46F2A811884202
:1037D00004DA9FEDD70AD04880ED000AD54800787A
:1037E000012808D11FED4A0ACB4880ED000ACD48D8
:1037F0000068CD490860C84890ED000ABDEEC00AD7
:1038000010EE100A03B241F2883201210020FFF7C6
:1038100061FD8AE0C34890ED000AB8EEC00AF0EE00
:10382000400A0021C048006800F6B83000EE100AD7
:10383000B8EEC00ABD4802F080FCBC4890ED080A12
:10384000B1EE400AB44880ED000AB6480068B649B7
:103850000968081A46F2A811884204DA9FEDB40AF2
:10386000AD4880ED000AB3480078012808D11FED6B
:103870006C0AA94880ED000AAA480068AA490860B5
:10388000A54890ED000ABDEEC00A10EE100A03B282
:1038900041F2883201210020FFF71CFD45E0A148DC
:1038A00090ED000AB8EEC00AF0EE400A00219E48F2
:1038B000006800F6B83000EE100AB8EEC00A9B4867
:1038C00002F03BFC994890ED080AB1EE400A92489C
:1038D00080ED000A9348006893490968081A46F287
:1038E000A811884204DA9FED920A8B4880ED000A05
:1038F00090480078012808D11FED8F0A864880ED96
:10390000000A8848006888490860834890ED000AEA
:10391000BDEEC00A10EE100A03B241F28832012156
:103920000020FFF7D7FC00E000BF00BF10BD10B5BE
:1039300081480078012819D17E48007801280ED1ED
:1039400000207D49087077480068774908600023A7
:1039500041F2883201211846FFF7BCFC06E0774BA4
:1039600041F2883201210020FFF7B4FC10BD00B500
:103970008BB001210846FDF7ADF901214806FDF79E
:10398000F2F909220C216E48FCF791FF09220B2164
:103990006B48FCF78CFF4FF4C050029002208DF86A
:1039A0000C0002A96648FCF7F7FE14208DF804000D
:1039B00002208DF8050001208DF806008DF8070023
:1039C00001A8FCF7F8FD13208DF8040001208DF804
:1039D00005008DF806008DF8070001A8FCF7EBFD47
:1039E0005848FEF791FB08A8FEF7B2FC00208DF8BE
:1039F00026008DF827008DF828008DF829008DF815
:103A00002A0001208DF82B0000208DF822008DF86F
:103A1000230008208DF8240003208DF82500ADF840
:103A2000200008A94748FEF788FB00208DF81A00FF
:103A30008DF81B0001208DF81C000020ADF810004F
:103A4000ADF81200ADF81400ADF81600ADF818008E
:103A500001208DF81D0004A8FEF7F9FB01220221C8
:103A60003848FEF7F3FE012211463648FEF7EEFE17
:103A70000BB000BD10B501213248FEF74FFF30B149
:103A800001213048FEF7E5FF01202F49087010BDE5
:103A900070B586B004460D46002600208DF80C0057
:103AA0008DF80D0008208DF80E00072C06DC0F2D78
:103AB00004DC46EA042646EA051601E006B070BDBD
:103AC000019655208DF80F0055218DF810108DF8B6
:103AD00011108DF812108DF813108DF814108DF848
:103AE00015108DF8161000201749087001A9154807
:103AF000FEF79CFC00201549086029E00120FFF733
:103B0000CDFB12480068401C104908600846006858
:103B100064281DD920E00000480000207301002027
:103B2000E30000208004002064000020A80300209F
:103B30000080BBC4E20000206000002030F8FFFFDE
:103B400000000240006400406C000020680000207B
:103B5000FB4800780028D1D000BF00BFAEE7F0B529
:103B600085B004460D461746012600208DF8080052
:103B70008DF8090008208DF80A00072C06DC0F2DAF
:103B800004DC46EA042646EA051601E005B0F0BD6D
:103B900000968DF80B7055218DF80C108DF80D10D6
:103BA0008DF80E108DF80F108DF810108DF8111083
:103BB0008DF812100020E24908706946E148FEF7CE
:103BC00035FC0020E04908600CE00120FFF766FBAF
:103BD000DD480068401CDC4908600846006864282D
:103BE00000D903E0D64800780028EED000BF00BF1F
:103BF000CCE7F0B585B005460E46144602270020F6
:103C00008DF808008DF8090008208DF80A00072DAE
:103C100006DC0F2E04DC47EA052747EA061701E019
:103C200005B0F0BD009741F28830844201DD0446C2
:103C300003E0C648844200DA0446200A8DF80B00EF
:103C4000E1B28DF80C1055218DF80D108DF80E1085
:103C50008DF80F108DF810108DF811108DF81210CE
:103C60000020B74908706946B648FEF7DFFB002020
:103C7000B54908600CE00120FFF710FBB24800686E
:103C8000401CB149086008460068642800D903E078
:103C9000AB4800780028EED000BF00BFC0E72DE998
:103CA000F04186B005460E4614461F464FF0030805
:103CB00000208DF80C008DF80D0008208DF80E0006
:103CC000072D06DC0F2E04DC48EA052848EA061812
:103CD00002E006B0BDE8F081CDF8048041F2883002
:103CE000844201DD044603E09848844200DA044639
:103CF000002C04DA01DD204600E0604204B2200A14
:103D00008DF80F008DF81040390A8DF811108DF8DC
:103D1000127055218DF813108DF814108DF81510B0
:103D20008DF8161000208649087001A98548FEF715
:103D30007DFB0020844908600CE00120FFF7AEFA0B
:103D400081480068401C8049086008460068642873
:103D500000D903E07A4800780028EED000BF00BF09
:103D6000B7E72DE9F04186B006460F4614461D46DA
:103D70004FF0050800208DF80C008DF80D0008208C
:103D80008DF80E00072E06DC0F2F04DC48EA06280B
:103D900048EA071802E006B0BDE8F081CDF80480DB
:103DA00041F28830844201DD044603E067488442E2
:103DB00000DA0446002C04DA01DD204600E060420F
:103DC00004B2200A8DF80F008DF8104055218DF8AF
:103DD00011108DF81210290E8DF81310290C8DF882
:103DE0001410290A8DF815108DF81650002054492A
:103DF000087001A95348FEF719FB002052490860DA
:103E00000CE00120FFF74AFA4F480068401C4E4979
:103E1000086008460068642800D903E04848007834
:103E20000028EED000BF00BFB5E72DE9F04385B014
:103E300080460F4614461D460C9E4FF00609002092
:103E40008DF808008DF8090008208DF80A00B8F1F7
:103E5000070F06DC0F2F04DC49EA082949EA071995
:103E600002E005B0BDE8F083CDF8009041F2883063
:103E7000844201DD044603E03448844200DA04460B
:103E8000002C04DA01DD204600E0604204B2002D7F
:103E900004DA01DD284600E0684205B2200A8DF808
:103EA0000B00E1B28DF80C10290A8DF80D10E9B263
:103EB0008DF80E10310E8DF80F10310C8DF810109A
:103EC000310A8DF81110F1B28DF8121000201C4942
:103ED000087069461B48FEF7A9FA00201A490860D5
:103EE0000CE00120FFF7DAF917480068401C16497A
:103EF000086008460068642800D903E0104800788C
:103F00000028EED000BF00BFABE72DE9F04186B03E
:103F100005460E4614461F464FF0070800208DF850
:103F20000C008DF80D0008208DF80E00072D0FDC19
:103F30000F2E0DDC48EA052848EA06180BE00000C1
:103F40006C000020006400406800002078ECFFFF57
:103F500006B0BDE8F081CDF80480002C04DA01DD64
:103F6000204600E0604204B2200A8DF80F008DF870
:103F70001040390A8DF811108DF8127055218DF806
:103F800013108DF814108DF815108DF816100020F0
:103F9000FE49087001A9FE48FEF748FA0020FD49D5
:103FA00008600CE00120FFF779F9FA480068401C2E
:103FB000F849086008460068642800D903E0F3481F
:103FC00000780028EED000BF00BFC1E72DE9F04126
:103FD00086B006460F4614461D464FF008080020DE
:103FE0008DF80C008DF80D0008208DF80E00072EBE
:103FF00006DC0F2F04DC48EA062848EA071802E02E
:1040000006B0BDE8F081CDF80480002C04DA01DDB3
:10401000204600E0604204B2200A8DF80F008DF8BF
:10402000104055218DF811108DF81210290E8DF8C1
:104030001310290C8DF81410290A8DF815108DF81D
:1040400016500020D149087001A9D148FEF7EEF9B9
:104050000020D04908600CE00120FFF71FF9CD488F
:104060000068401CCB49086008460068642800D9F5
:1040700003E0C64800780028EED000BF00BFBFE7CD
:104080002DE9F04385B00746884614461D460C9E30
:104090004FF0090900208DF808008DF8090008206C
:1040A0008DF80A00072F07DCB8F10F0F04DC49EA8E
:1040B000072949EA081902E005B0BDE8F083CDF808
:1040C0000090002C04DA01DD204600E0604204B2DA
:1040D000002D04DA01DD284600E0684205B2200A1E
:1040E0008DF80B00E1B28DF80C10290A8DF80D1037
:1040F000E9B28DF80E10310E8DF80F10310C8DF8DD
:104100001010310A8DF81110F1B28DF81210002044
:104110009E49087069469E48FEF788F900209D492F
:1041200008600CE00120FFF7B9F89A480068401CCD
:104130009849086008460068642800D903E093485D
:1041400000780028EED000BF00BFB5E72DE9F041B0
:1041500086B005460E4690461C460A2700208DF87C
:104160000C008DF80D0008208DF80E00072D06DCE0
:104170000F2E04DC47EA052747EA061702E006B0DF
:10418000BDE8F08114B1012C00D0002401978DF816
:104190000F808DF8104055218DF811108DF81210F8
:1041A0008DF813108DF814108DF815108DF8161069
:1041B00000207649087001A97548FEF737F90020FC
:1041C000744908600CE00120FFF768F87148006846
:1041D000401C7049086008460068642800D903E064
:1041E0006A4800780028EED000BF00BFC7E770B56E
:1041F00086B004460D460F2600208DF80C008DF881
:104200000D0008208DF80E00072C06DC0F2D04DCB5
:1042100046EA042646EA051601E006B070BD01969E
:1042200055208DF80F0055218DF810108DF81110C4
:104230008DF812108DF813108DF814108DF81510DC
:104240008DF8161000205149087001A95048FEF75A
:10425000EDF800204F4908600CE00120FFF71EF840
:104260004C480068401C4B490860084600686428B8
:1042700000D903E0454800780028EED000BF00BF19
:10428000CBE710B544480088401C434908804348A8
:104290000088401C414908803F480088C82803DC4A
:1042A00008460088C82805DD4FF480713C48FCF7BB
:1042B000EFFA04E04FF480713948FCF7EBFA10BDD7
:1042C00000B585B002213248FEF728FB00283CD01B
:1042D00002212F48FEF7BDFB6A4600212C48FEF75D
:1042E0009AF99DF8080000282FD19DF808000028B1
:1042F000FAD19DF80A000828F6D100981B2825D18C
:104300009DF80C009DF80B1040EA012000B22549F1
:1043100008809DF80E109DF80D0041EA002000B2C3
:10432000214908809DF80F0001069DF8100041EA20
:1043300000419DF8110041EA00209DF81210084349
:104340001A490860002014490880D0E000982B2802
:1043500036D19DF80C009DF80B1040EA012000B208
:10436000104948809DF80E109DF80D0041EA00208C
:1043700000B20D4948809DF80F0001069DF810001D
:1043800041EA00419DF8110012E000006C0000209D
:1043900000640040680000208A0000209A0000208D
:1043A000001402406E0000207600002080040020EF
:1043B00041EA00209DF8121008434E49486096E0FB
:1043C00000983B2822D19DF80C009DF80B1040EA84
:1043D000012000B2484988809DF80E109DF80D001C
:1043E00041EA002000B2454988809DF80F0001068F
:1043F0009DF8100041EA00419DF8110041EA0020BB
:104400009DF8121008433B49886070E000984B28E3
:1044100022D19DF80C009DF80B1040EA012000B25B
:104420003549C8809DF80E109DF80D0041EA002026
:1044300000B23249C8809DF80F0001069DF81000B7
:1044400041EA00419DF8110041EA00209DF8121058
:1044500008432849C8604AE000981F2803D101207A
:104460002749087043E000982F2803D101202449F0
:1044700048703CE000983F2803D101202049887013
:1044800035E000984F2803D101201D49C8702EE067
:1044900000981C2808D19DF80B001A4908709DF857
:1044A0000C001949087022E000982C2808D19DF8CA
:1044B0000B00144948709DF80C001349487016E031
:1044C00000983C2808D19DF80B000E4988709DF893
:1044D0000C000D4988700AE000984C2807D19DF81F
:1044E0000B000849C8709DF80C000749C87005B05A
:1044F00000BD0000800400206E0000207600002037
:104500007E00002082000020860000202DE9F0417E
:1045100086B080460C4615461E460C9F4FF4007030
:10452000019000208DF80C008DF80D0008208DF80A
:104530000E00200A8DF80F008DF81040290A8DF822
:1045400011108DF81250310A8DF813108DF8146087
:10455000390A8DF815108DF8167001A94046FDF73F
:1045600065FF06B0BDE8F0810A7BCB7A42EA032200
:1045700012B28282704702880281428842810A7B9D
:10458000CB7A42EA032212B202808B7B4A7B43EA57
:10459000022212B242800B7CCA7B43EA022212B290
:1045A00082804A7CC28002880389D21A12B2828138
:1045B000B0F90C2012F5805F04DAC289521C12B2E5
:1045C000C28108E0B0F90C20B2F5805F03DDC2893A
:1045D000521E12B2C281B0F90030B0F90E2003EBC6
:1045E0004232B0F91430D21A00EE102AB8EEC00AE6
:1045F00080ED040A90ED040A754AD2ED000A80EEBF
:10460000201A80ED061A704700B585B00221714866
:10461000FEF784F9002849D002216E48FEF719FA06
:104620006A4600216B48FDF7F6FF0098A0F20120D2
:1046300020B1012814D0022836D123E06648016851
:104640000068401C644A1060322904D869466348F7
:10465000FFF78AFF03E069466048FFF78CFF24E01C
:104660005D4801680068401C5B4A1060322904D82C
:1046700069465B48FFF778FF03E069465848FFF753
:104680007AFF12E0544801680068401C524A1060EA
:10469000322904D869465348FFF766FF03E06946AC
:1046A0005048FFF768FF00E000BF00BF05B000BD45
:1046B00010B501214748FEF731F918B101214548ED
:1046C000FEF7C7F910BD00B58BB001210220FCF741
:1046D00001FB01218806FCF746FB09220C21424818
:1046E000FCF7E5F8092206213F48FCF7E0F84FF413
:1046F0008250029002208DF80C0002A93A48FCF783
:104700004BF840208DF8040001208DF805008DF84D
:1047100006008DF8070001A8FBF74DFF3F208DF83C
:10472000040000208DF8050003208DF8060001200C
:104730008DF8070001A8FBF73EFF2648FDF7E4FCD3
:1047400008A8FDF705FE00208DF826008DF827004B
:104750008DF828008DF829008DF82A0001208DF8A9
:104760002B0000208DF822008DF8230008208DF802
:10477000240003208DF82500ADF8200008A9154875
:10478000FDF7DBFC0E208DF81A0000208DF81B00D1
:1047900001208DF81C000020ADF81000ADF81200CB
:1047A000ADF81400ADF81600ADF8180001208DF832
:1047B0001D0004A8FDF74BFD012202210548FEF76C
:1047C00045F8012211460348FEF740F80BB000BD42
:1047D00090000020006800408C0000209004002021
:1047E000AC040020C80400200004024030B5034699
:1047F0001C788C545D78541C0D559D78941C0D5577
:10480000DD78D41C0D5530BD11B52DED020B0446DD
:104810000A2C00DC04B91EBD0B2C43D2DFE804F0E7
:1048200042060C12181E242A30363C0001225E4932
:104830006846FFF7DBFF35E005225B496846FFF776
:10484000D5FF2FE0092258496846FFF7CFFF29E03E
:104850000D2255496846FFF7C9FF23E0112252494E
:104860006846FFF7C3FF1DE015224F496846FFF772
:10487000BDFF17E019224C496846FFF7B7FF11E06A
:104880001D2249496846FFF7B1FF0BE02122464946
:104890006846FFF7ABFF05E0252243496846FFF76E
:1048A000A5FF00BF00BF00BFB5E701460A2900DC35
:1048B00009B90020704724203B4A10700B293CD2D4
:1048C000DFE801F03B060B10151A1F24292F3500D5
:1048D0000520354A50710620ECE70920324A507213
:1048E0000A20E7E70D20304A50730E20E2E711203E
:1048F0002D4A50741220DDE715202B4A50751620E2
:10490000D8E71920284A50761A20D3E71D20264AD6
:1049100050771E20CEE72120234A82F82100222052
:10492000C8E72520204A82F825002620C2E7292052
:104930001D4A82F829002A20BCE70020BAE700B50A
:10494000F0EE401A0120B0EE610AFFF75DFF022091
:10495000B0EE600AFFF758FF0320B0EE410AFFF700
:1049600053FF0320FFF7A1FF1049087000201049F2
:10497000087011E000BF0F48008800F040000028D8
:10498000F9D009480A490978405C0A4988800848F2
:104990000078401C064908700548007803490978EA
:1049A0008842E7DB00BD0000E40400209500002001
:1049B000940000200010014010B588B00446012189
:1049C0000420FCF787F901210820FCF783F9012175
:1049D0000805FCF7C8F908220C217F48FBF767FFA0
:1049E000082202217D48FBF762FF4FF480500690B9
:1049F00002208DF81C008DF81D0000208DF81E008F
:104A000001208DF81F0006A97348FBF7C5FE04209E
:104A1000069002208DF81C008DF81D0000208DF8F6
:104A20001E0001208DF81F0006A96C48FBF7B4FE9C
:104A300002940020ADF80C00ADF80E00ADF81000A7
:104A4000ADF814000C20ADF8120002A96448FDF77F
:104A500098F901216248FDF71CFA012240F2255124
:104A60005F48FDF7CCFA35208DF8040002208DF860
:104A7000050003208DF8060001208DF8070001A82D
:104A8000FBF799FD08B010BD10B540F22551544810
:104A9000FDF7F0FA01287DD140F225515048FDF78D
:104AA00024FB4F48FDF724FA4E4908704E48007821
:104AB000052870D2DFE800F00311263D4B0049487D
:104AC00000780A2805D148480078401C46490870FB
:104AD00002E00020444908707CE0424800780A283F
:104AE00008D10020414908703F480078401C3E49E9
:104AF000087006E03B4800780B2802D000203A49B5
:104B0000087067E0374800783949384A1278885485
:104B100036480078401C354908700846007820283F
:104B200006DB0020087030480078401C2E490870D1
:104B300050E02C4800780B2805D12B480078401C09
:104B40002949087002E000202749087042E0254802
:104B500000780B2836D10020264908802448008898
:104B600025490880224840884880214880888880DC
:104B70001F48C088C8801E48008908811C48408999
:104B800048811B48808988811948C089C881184894
:104B9000008A01E01FE019E008821548408A488237
:104BA0001348808A88821248C08AC8821048008BC5
:104BB00008830F48408B48830D48808B88830C48BE
:104BC000C08BC88300200849087003E00020064914
:104BD000087000BF00BF10BD00080240000C02407A
:104BE00000500040C4000020C5000020C600002086
:104BF0002E0500209A0000200E050020674800784E
:104C000008280BD065480078082807D0634800784A
:104C1000062803D061480078072803D101206049A5
:104C2000086002E000205E4908605C4800780228C5
:104C300003D05A480078042803D10120594908605C
:104C400002E000205749086070471CB50121202070
:104C5000FCF740F801210220FCF73CF8012108464E
:104C6000FCF738F801210820FCF734F80121402036
:104C7000FCF730F84FF4C060009001208DF804007C
:104C800000208DF8060003208DF8050001208DF826
:104C9000070069464448FBF77FFD4FF4C061424876
:104CA000FBF7F8FD4FF40040009001208DF8040060
:104CB00000208DF8060003208DF8050001208DF8F6
:104CC000070069463948FBF767FD4FF40041374854
:104CD000FBF7E0FD4FF40040009001208DF8040048
:104CE00000208DF8060003208DF8050001208DF8C6
:104CF000070069462E48FBF74FFD4FF400412C4852
:104D0000FBF7C8FD4FF48060009001208DF804008F
:104D100000208DF8060003208DF8050001208DF895
:104D2000070069462348FBF737FD4FF480612148AF
:104D3000FBF7B0FD8020009001208DF804000020DA
:104D40008DF8060003208DF8050001208DF807007E
:104D500069461948FBF720FD80211748FBF79AFDAB
:104D600001212020FBF7B6FF4FF480700090012056
:104D70008DF8040000208DF8060003208DF8050052
:104D800002208DF8070069460748FBF705FD4FF440
:104D900080710548FBF77EFD1CBD00006E01002000
:104DA000BC824042BC024042001402400004024067
:104DB0000000024000180240000C024010B5202004
:104DC000FDF70EFF002842D03648006836490860DB
:104DD0004FF08040406A354909684FF47A7202FB0F
:104DE000010030490860084600882F490988401AA8
:104DF0002F4908802F480088642804DA2D4800884D
:104E0000401C2C4908802C480088012813D12B48CD
:104E10000088401C294908802548018827480088C7
:104E2000401E274A22F8101024480088082802DB78
:104E30000020214908801E48008840F6020188426F
:104E400005DB01201C49088000201C490880202027
:104E5000FDF7D1FE10BD0EB501218803FBF794FFCD
:104E600005210420FCF79BF82020009000208DF8FD
:104E7000040008208DF8050001208DF80600684622
:104E8000FDF748FE17208DF8080000208DF8090076
:104E900002208DF80A0001208DF80B0002A8FBF714
:104EA0008AFB0EBDD4000020D0000020300000207E
:104EB000D8000020CE000020E0000020CC00002020
:104EC0004E0500203048007801280AD12F4800788C
:104ED00020B92F480078401C2D49087001202B492B
:104EE0000870704710B54FF480412A48FBF7B6FCB4
:104EF000012802D12849087002E0002026490870E4
:104F000020212648FBF7AAFC012802D12449087079
:104F100002E00020224908704FF400712148FBF79D
:104F20009DFC012802D11849087002E000201649B2
:104F3000087010BD1CB501210720FBF7CBFE202017
:104F4000009000208DF8040003208DF80500022059
:104F50008DF8070069461148FBF71EFC4FF48040AE
:104F6000009002208DF8070069460A48FBF714FC00
:104F70004FF40070009002208DF807006946094840
:104F8000FBF70AFC1CBD0000E4000020E600002046
:104F9000E500002000040240E20000200000024082
:104FA000E3000020000802406F490A780978491C94
:104FB0006D4B19706D4988540978552903D000212B
:104FC0001A4611707047684909780B2900DAF9E729
:104FD0006649497850390A2956D2DFE801F0050DB3
:104FE000151D252D353D454D6149604A921C1368BC
:104FF0000B6052684A6047E05E495C4A921C136845
:105000000B6052684A603FE05B49584A921C136843
:105010000B6052684A6037E05849544A921C136842
:105020000B6052684A602FE05549504A921C136841
:105030000B6052684A6027E052494C4A921C136840
:105040000B6052684A601FE04F49484A921C13683F
:105050000B6052684A6017E04C49444A921C13683E
:105060000B6052684A600FE04949404A921C13683D
:105070000B6052684A6007E046493C4A921C13683C
:105080000B6052684A6000BF00BF0021364A1170B1
:1050900000BF97E710B540F225513F48FCF7EAFF03
:1050A00001280DD140F225513B48FDF71EF83A4842
:1050B000FCF71EFF3949087008460078FFF774FFB7
:1050C00010BD10B588B0044601210420FBF702FE94
:1050D0000121C804FBF747FE08220A213048FBF7EC
:1050E000E6FB08220B212E48FBF7E1FB4FF4406062
:1050F000069002208DF81C008DF81D0000208DF810
:105100001E0001208DF81F0006A92548FBF744FB6F
:1051100002940020ADF80C00ADF80E00ADF81000C0
:10512000ADF814000C20ADF8120002A91A48FCF7E3
:1051300028FE01211848FCF7ACFE012240F225515F
:105140001548FCF75CFF34208DF8040003208DF82F
:1051500005008DF8060001208DF8070001A8FBF777
:105160002AFA08B010BD0000450100205E050020AD
:10517000E8000020F0000020F800002000010020DE
:10518000080100201001002018010020200100204B
:105190002801002030010020004C00404401002084
:1051A000000802401CB501214020FBF793FD54206C
:1051B000009001208DF8040000208DF806000320E7
:1051C0008DF8050001208DF807006946F548FBF7CA
:1051D000E3FA4FF48070009000208DF80400032063
:1051E0008DF8050002208DF807006946ED48FBF7B1
:1051F000D3FA1CBD38B50446012000900020EA49CE
:105200004870012000902EE0BDF80000204018B149
:105210000120E649086002E00020E449086001201E
:10522000E249103908600520FDF708FD0020E0493B
:10523000C1F888020520FDF701FD0120DC49C1F815
:1052400088020846D0F8200230B1D7484078BDF82F
:1052500000100843D4494870BDF800004FF6FF71B4
:1052600001EA40000090BDF80000FF28CCDD1020CE
:10527000FDF7E4FC38BD10B50020CC4908390860C2
:10528000CC490878FFF7B6FFCA494878FFF7B2FF64
:105290000120C749C1F89002C3484078732801D162
:1052A000002010BD0120FCE71CB50020019001206A
:1052B00000900020BD4908390860BE490878FFF712
:1052C00099FFBC494878FFF795FF0220019036E02E
:1052D0000120009027E00120B44910390860052022
:1052E000FDF7ACFC0020B249C1F888020520FDF7AB
:1052F000A5FC0120AE49C1F888020846D0F820027A
:1053000050B1A9489DF80410405CBDF80010084356
:10531000A5499DF804208854BDF800004FF6FF71A0
:1053200001EA40000090BDF80000FF28D3DD102006
:10533000FDF784FC9DF80400401CC0B201909DF86C
:1053400004000928C4DB01209849083908601CBD05
:10535000002004E00021944A1154411CC8B20928DD
:10536000F8DB704710B5FFF7F3FFFFF79DFF8E489E
:10537000C0788D49097940EA01208F4908800024CE
:105380000FE08E4810F81400401E012101FA00F0D1
:1053900089490988084010B9601CC0B210BD601C62
:1053A000C4B2102CEDDB0020F8E701467E48405CDB
:1053B000704770B505460C4600207C4908390860E6
:1053C0001020FDF73BFC0120FFF714FF4220FFF700
:1053D00011FF0020FFF70EFF2846FFF70BFF2046C6
:1053E000FFF708FF0020FFF705FF0020FFF702FF8F
:1053F0000020FFF7FFFE0020FFF7FCFE01206C49B4
:10540000C1F890021020FDF719FC70BD10B5002006
:105410006649083908601020FDF710FC0120FFF7ED
:10542000E9FE4220FFF7E6FE0020FFF7E3FE002042
:10543000FFF7E0FE0020FFF7DDFE01205C49C1F828
:1054400090021020FDF7FAFB10BD10B5002057495F
:10545000083908601020FDF7F1FB0120FFF7CAFEB4
:105460004320FFF7C7FE0020FFF7C4FE0120FFF72F
:10547000C1FE0020FFF7BEFE0020FFF7BBFE0020AC
:10548000FFF7B8FE0020FFF7B5FE0020FFF7B2FEE1
:1054900001204749C1F890021020FDF7CFFB10BD55
:1054A00010B500204149083908600120FFF7A2FE2D
:1054B0004420FFF79FFE0020FFF79CFE0120FFF72E
:1054C00099FEEE20FFF796FE0020FFF793FE0020E6
:1054D000FFF790FE0020FFF78DFE0020FFF78AFE09
:1054E00001203349C1F890021020FDF7A7FB10BD41
:1054F00010B500202D49083908601020FDF79EFBEB
:105500000120FFF777FE4D20FFF774FE0020FFF724
:1055100071FE0020FFF76EFE0120FFF76BFE0120F9
:105520002349C1F890021020FDF788FB10BD10B58B
:1055300000201E49083908601020FDF77FFB01207C
:10554000FFF758FE4320FFF755FE0020FFF752FEFD
:105550000020FFF74FFE5A20FFF74CFE5A20FFF7BE
:1055600049FE5A20FFF746FE5A20FFF743FE5A2015
:10557000FFF740FE01200E49C1F890021020FDF710
:105580005DFB10BD10B5FFF741FFFFF73FFFFFF7D1
:105590003DFFFFF75AFFFFF783FFFFF7A9FFFFF774
:1055A000C6FF10BD00180240580600209802434272
:1055B0000000434248010020460100204A0100202B
:1055C000DB4800780E2870D2DFE800F007142A3795
:1055D00056638F9C707FA9B3DC43D64800780128BE
:1055E00007D1D3490870D448D44908600120D44970
:1055F0000870D5E0D248007888B9D248007818B948
:105600000820CB49087005E00920C949087000202E
:10561000CC4908700220CA490870CB490870BFE025
:10562000C748007840B90620C14908700220C44923
:1056300008700120C5490870B2E0C148007838B947
:105640000920BB4908700220BD490870BE49087096
:10565000A6E0BB48007870B90820B5490870022060
:10566000B7490870B84908700020B9490870B949AD
:105670000870B949087093E0B148007840B9072034
:10568000AB4908700220AE4908700120AF4908708C
:1056900086E0AB48007838B90920A5490870022097
:1056A000A7490870A84908707AE078E0A648007811
:1056B00050B902209E490870A1490870A7489F4927
:1056C00008600220A04908706AE09F48007858B935
:1056D000042097490870022099490870A04897490A
:1056E00008600220984908705AE09848007840B94C
:1056F0000A208F49087002209449087003209949B4
:1057000008704DE09148007840B90A208849087037
:1057100002208E49087003209249087040E09148A9
:10572000007828B90B208249087002208D49087042
:1057300036E08C48007820BB8548007888B9032083
:105740007B49087088487D49086001207C490870C1
:105750000220844908707E480078401C7C4908700B
:105760000FE07B48007801280BD1052070490870B4
:105770007E48724908600120714908700220794909
:1057800008700DE00D206A49087077486B49086081
:1057900001206B49087002207249087000E000BFC8
:1057A00000BF704708B54FF4A060FAF7FFFE1C2059
:1057B0008DF8000001208DF8030000208DF8010015
:1057C00001208DF802006846FAF7F5FE08BD10B515
:1057D0004FF47A70FDF77FFBFFF7E4FF4FF4E13001
:1057E000FDF7A1FA4FF4E130FFF76BFC4FF4E13025
:1057F000FFF7E2F801F0BBFC01F0D0FAFDF75BFD2A
:10580000FFF798FBFFF7CEFCFFF7BCFEFEF7AFF803
:10581000FEF759FF00210846FEF73AF94FF4FA70F7
:10582000FDF754FA0023642201211846FEF78EFC8E
:10583000032200210846FEF792F94FF4FA70FDF7B3
:1058400045FAFFF702FA01203A49087048A002F031
:1058500069FD10BD10B5FFF7B3FE02F0C2FA02F009
:1058600005F801F045FC3548006801F07BF9FDF7CB
:1058700093FD00F0A5F8FDF7A7FEFEF702FD10BDB1
:1058800010B5FEF754F810BD10B53D48D0ED001A24
:105890003C4890ED001A3C48D0ED000A3B4890EDA2
:1058A000000A00F04AFB10BD10B5FFF71BFBFFF725
:1058B000A5F910BD00B52DED048B83B03348006809
:1058C00005F028F841EC180B314890ED010AB1EED3
:1058D000400A10EE101A084605F01CF841EC190BAE
:1058E0002C48006802908DED008B53EC192B2AA0F8
:1058F00002F018FD2F4890ED001A2F48D0ED000A55
:10590000224890ED000AFFF71AF803B0BDEC048BB3
:1059100000BD704710B54FF400712848FAF7C3FF77
:105920004FF480612548FAF7BEFF10BD70470000B4
:105930006E0100206C010020340200207401002060
:1059400070010020DC0200207101002072010020A3
:105950006D010020D9020020DA0200204002002060
:1059600058020020730100204C0200206402002035
:10597000496E6974206973206F6B210A0000000072
:1059800084010020800100207C010020780100209B
:10599000C40700208004002058203A2025356620C6
:1059A0002056783A2535662020504F533A253566E3
:1059B000200D0A0074020020700200200014024032
:1059C00010B5FE48007890B9FD48007801280ED146
:1059D000FC480078062802D0072806D102E002F031
:1059E00012FC03E002F00FFC00BF00BF00BF10BDBF
:1059F00010B52DED088BB0EE409AB0EE608AF0EE57
:105A000041BAB0EE040AB0EE40BA9FEDEF0AF0EEF4
:105A1000409AB1EE040AED4880ED000A9FEDEC0AD1
:105A2000B4EEC08AF1EE10FA17DD9FEDEA2ADFED41
:105A3000EA1A9FEDE81ADFEDE70AB1EE000AE7483F
:105A400000F023FC0021F0EE480A9FEDE10AE34854
:105A500000F073FBE148D0ED08AA9FEDE10AB4EE37
:105A6000C08AF1EE10FA20DD9FEDD90AB4EEC08AAB
:105A7000F1EE10FA19D29FEDD72ADFEDD71A9FED7C
:105A8000D51ADFEDD40AB0EE000AD44800F0FDFBD1
:105A90000021F0EE480A9FEDD20AD04800F04DFBFD
:105AA000CE4890ED080AF0EE40AA9FEDC70AB4EE8A
:105AB000C08AF1EE10FA20DD9FEDC90AB4EEC08A6B
:105AC000F1EE10FA19D29FEDC32ADFEDC31A9FED54
:105AD000C11ADFEDC00AB0EE000AC04800F0D5FBE5
